{
  "contractName": "Farm",
  "abi": [
    {
      "inputs": [
        {
          "internalType": "contract Dapptoken",
          "name": "_dapptoken",
          "type": "address"
        },
        {
          "internalType": "contract Redapptoken",
          "name": "_redapptoken",
          "type": "address"
        }
      ],
      "stateMutability": "nonpayable",
      "type": "constructor"
    },
    {
      "inputs": [],
      "name": "dapptoken",
      "outputs": [
        {
          "internalType": "contract Dapptoken",
          "name": "",
          "type": "address"
        }
      ],
      "stateMutability": "view",
      "type": "function",
      "constant": true
    },
    {
      "inputs": [
        {
          "internalType": "address",
          "name": "",
          "type": "address"
        }
      ],
      "name": "hasStaked",
      "outputs": [
        {
          "internalType": "bool",
          "name": "",
          "type": "bool"
        }
      ],
      "stateMutability": "view",
      "type": "function",
      "constant": true
    },
    {
      "inputs": [
        {
          "internalType": "address",
          "name": "",
          "type": "address"
        }
      ],
      "name": "isStaking",
      "outputs": [
        {
          "internalType": "bool",
          "name": "",
          "type": "bool"
        }
      ],
      "stateMutability": "view",
      "type": "function",
      "constant": true
    },
    {
      "inputs": [],
      "name": "name",
      "outputs": [
        {
          "internalType": "string",
          "name": "",
          "type": "string"
        }
      ],
      "stateMutability": "view",
      "type": "function",
      "constant": true
    },
    {
      "inputs": [],
      "name": "owner",
      "outputs": [
        {
          "internalType": "address",
          "name": "",
          "type": "address"
        }
      ],
      "stateMutability": "view",
      "type": "function",
      "constant": true
    },
    {
      "inputs": [],
      "name": "redapptoken",
      "outputs": [
        {
          "internalType": "contract Redapptoken",
          "name": "",
          "type": "address"
        }
      ],
      "stateMutability": "view",
      "type": "function",
      "constant": true
    },
    {
      "inputs": [
        {
          "internalType": "uint256",
          "name": "",
          "type": "uint256"
        }
      ],
      "name": "stakers",
      "outputs": [
        {
          "internalType": "address",
          "name": "",
          "type": "address"
        }
      ],
      "stateMutability": "view",
      "type": "function",
      "constant": true
    },
    {
      "inputs": [
        {
          "internalType": "address",
          "name": "",
          "type": "address"
        }
      ],
      "name": "stakingBalance",
      "outputs": [
        {
          "internalType": "uint256",
          "name": "",
          "type": "uint256"
        }
      ],
      "stateMutability": "view",
      "type": "function",
      "constant": true
    },
    {
      "inputs": [
        {
          "internalType": "uint256",
          "name": "_amount",
          "type": "uint256"
        }
      ],
      "name": "stakeTokens",
      "outputs": [],
      "stateMutability": "nonpayable",
      "type": "function"
    },
    {
      "inputs": [],
      "name": "unstakeTokens",
      "outputs": [],
      "stateMutability": "nonpayable",
      "type": "function"
    },
    {
      "inputs": [],
      "name": "issueTokens",
      "outputs": [],
      "stateMutability": "nonpayable",
      "type": "function"
    }
  ],
  "bytecode": "0x60806040526040518060400160405280600f81526020017f4461707020546f6b656e204661726d0000000000000000000000000000000000815250600090816200004a9190620003c3565b503480156200005857600080fd5b50604051620015a2380380620015a283398181016040528101906200007e91906200056d565b81600260006101000a81548173ffffffffffffffffffffffffffffffffffffffff021916908373ffffffffffffffffffffffffffffffffffffffff16021790555080600360006101000a81548173ffffffffffffffffffffffffffffffffffffffff021916908373ffffffffffffffffffffffffffffffffffffffff16021790555033600160006101000a81548173ffffffffffffffffffffffffffffffffffffffff021916908373ffffffffffffffffffffffffffffffffffffffff1602179055505050620005b4565b600081519050919050565b7f4e487b7100000000000000000000000000000000000000000000000000000000600052604160045260246000fd5b7f4e487b7100000000000000000000000000000000000000000000000000000000600052602260045260246000fd5b60006002820490506001821680620001cb57607f821691505b602082108103620001e157620001e062000183565b5b50919050565b60008190508160005260206000209050919050565b60006020601f8301049050919050565b600082821b905092915050565b6000600883026200024b7fffffffffffffffffffffffffffffffffffffffffffffffffffffffffffffffff826200020c565b6200025786836200020c565b95508019841693508086168417925050509392505050565b6000819050919050565b6000819050919050565b6000620002a46200029e62000298846200026f565b62000279565b6200026f565b9050919050565b6000819050919050565b620002c08362000283565b620002d8620002cf82620002ab565b84845462000219565b825550505050565b600090565b620002ef620002e0565b620002fc818484620002b5565b505050565b5b81811015620003245762000318600082620002e5565b60018101905062000302565b5050565b601f82111562000373576200033d81620001e7565b6200034884620001fc565b8101602085101562000358578190505b620003706200036785620001fc565b83018262000301565b50505b505050565b600082821c905092915050565b6000620003986000198460080262000378565b1980831691505092915050565b6000620003b3838362000385565b9150826002028217905092915050565b620003ce8262000149565b67ffffffffffffffff811115620003ea57620003e962000154565b5b620003f68254620001b2565b6200040382828562000328565b600060209050601f8311600181146200043b576000841562000426578287015190505b620004328582620003a5565b865550620004a2565b601f1984166200044b86620001e7565b60005b8281101562000475578489015182556001820191506020850194506020810190506200044e565b8683101562000495578489015162000491601f89168262000385565b8355505b6001600288020188555050505b505050505050565b600080fd5b600073ffffffffffffffffffffffffffffffffffffffff82169050919050565b6000620004dc82620004af565b9050919050565b6000620004f082620004cf565b9050919050565b6200050281620004e3565b81146200050e57600080fd5b50565b6000815190506200052281620004f7565b92915050565b60006200053582620004cf565b9050919050565b620005478162000528565b81146200055357600080fd5b50565b60008151905062000567816200053c565b92915050565b60008060408385031215620005875762000586620004aa565b5b6000620005978582860162000511565b9250506020620005aa8582860162000556565b9150509250929050565b610fde80620005c46000396000f3fe608060405234801561001057600080fd5b50600436106100a95760003560e01c80637547c7a3116100715780637547c7a3146101545780638da5cb5b14610170578063a5ce413b1461018e578063c93c8f3414610198578063d0779b37146101c8578063fd5e6dd1146101e6576100a9565b806306fdde03146100ae578063448e5230146100cc57806345bc78ab146100ea57806360ab58521461011a5780636f49712b14610124575b600080fd5b6100b6610216565b6040516100c39190610a88565b60405180910390f35b6100d46102a4565b6040516100e19190610b29565b60405180910390f35b61010460048036038101906100ff9190610b87565b6102ca565b6040516101119190610bcd565b60405180910390f35b6101226102e2565b005b61013e60048036038101906101399190610b87565b6104cc565b60405161014b9190610c03565b60405180910390f35b61016e60048036038101906101699190610c4a565b6104ec565b005b610178610785565b6040516101859190610c86565b60405180910390f35b6101966107ab565b005b6101b260048036038101906101ad9190610b87565b610973565b6040516101bf9190610c03565b60405180910390f35b6101d0610993565b6040516101dd9190610cc2565b60405180910390f35b61020060048036038101906101fb9190610c4a565b6109b9565b60405161020d9190610c86565b60405180910390f35b6000805461022390610d0c565b80601f016020809104026020016040519081016040528092919081815260200182805461024f90610d0c565b801561029c5780601f106102715761010080835404028352916020019161029c565b820191906000526020600020905b81548152906001019060200180831161027f57829003601f168201915b505050505081565b600260009054906101000a900473ffffffffffffffffffffffffffffffffffffffff1681565b60056020528060005260406000206000915090505481565b600160009054906101000a900473ffffffffffffffffffffffffffffffffffffffff1673ffffffffffffffffffffffffffffffffffffffff163373ffffffffffffffffffffffffffffffffffffffff1614610372576040517f08c379a000000000000000000000000000000000000000000000000000000000815260040161036990610d89565b60405180910390fd5b60005b6004805490508110156104c95760006004828154811061039857610397610da9565b5b9060005260206000200160009054906101000a900473ffffffffffffffffffffffffffffffffffffffff1690506000600560008373ffffffffffffffffffffffffffffffffffffffff1673ffffffffffffffffffffffffffffffffffffffff16815260200190815260200160002054905060008111156104b457600260009054906101000a900473ffffffffffffffffffffffffffffffffffffffff1673ffffffffffffffffffffffffffffffffffffffff1663a9059cbb83836040518363ffffffff1660e01b815260040161046f929190610dd8565b6020604051808303816000875af115801561048e573d6000803e3d6000fd5b505050506040513d601f19601f820116820180604052508101906104b29190610e2d565b505b505080806104c190610e89565b915050610375565b50565b60076020528060005260406000206000915054906101000a900460ff1681565b600360009054906101000a900473ffffffffffffffffffffffffffffffffffffffff1673ffffffffffffffffffffffffffffffffffffffff166323b872dd3330846040518463ffffffff1660e01b815260040161054b93929190610ed1565b6020604051808303816000875af115801561056a573d6000803e3d6000fd5b505050506040513d601f19601f8201168201806040525081019061058e9190610e2d565b5080600560003373ffffffffffffffffffffffffffffffffffffffff1673ffffffffffffffffffffffffffffffffffffffff168152602001908152602001600020546105da9190610f08565b600560003373ffffffffffffffffffffffffffffffffffffffff1673ffffffffffffffffffffffffffffffffffffffff16815260200190815260200160002081905550600660003373ffffffffffffffffffffffffffffffffffffffff1673ffffffffffffffffffffffffffffffffffffffff16815260200190815260200160002060009054906101000a900460ff166106d2576004339080600181540180825580915050600190039060005260206000200160009091909190916101000a81548173ffffffffffffffffffffffffffffffffffffffff021916908373ffffffffffffffffffffffffffffffffffffffff1602179055505b6001600760003373ffffffffffffffffffffffffffffffffffffffff1673ffffffffffffffffffffffffffffffffffffffff16815260200190815260200160002060006101000a81548160ff0219169083151502179055506001600660003373ffffffffffffffffffffffffffffffffffffffff1673ffffffffffffffffffffffffffffffffffffffff16815260200190815260200160002060006101000a81548160ff02191690831515021790555050565b600160009054906101000a900473ffffffffffffffffffffffffffffffffffffffff1681565b6000600560003373ffffffffffffffffffffffffffffffffffffffff1673ffffffffffffffffffffffffffffffffffffffff16815260200190815260200160002054905060008111610832576040517f08c379a000000000000000000000000000000000000000000000000000000000815260040161082990610f88565b60405180910390fd5b600360009054906101000a900473ffffffffffffffffffffffffffffffffffffffff1673ffffffffffffffffffffffffffffffffffffffff1663a9059cbb33836040518363ffffffff1660e01b815260040161088f929190610dd8565b6020604051808303816000875af11580156108ae573d6000803e3d6000fd5b505050506040513d601f19601f820116820180604052508101906108d29190610e2d565b506000600560003373ffffffffffffffffffffffffffffffffffffffff1673ffffffffffffffffffffffffffffffffffffffff168152602001908152602001600020819055506000600760003373ffffffffffffffffffffffffffffffffffffffff1673ffffffffffffffffffffffffffffffffffffffff16815260200190815260200160002060006101000a81548160ff02191690831515021790555050565b60066020528060005260406000206000915054906101000a900460ff1681565b600360009054906101000a900473ffffffffffffffffffffffffffffffffffffffff1681565b600481815481106109c957600080fd5b906000526020600020016000915054906101000a900473ffffffffffffffffffffffffffffffffffffffff1681565b600081519050919050565b600082825260208201905092915050565b60005b83811015610a32578082015181840152602081019050610a17565b60008484015250505050565b6000601f19601f8301169050919050565b6000610a5a826109f8565b610a648185610a03565b9350610a74818560208601610a14565b610a7d81610a3e565b840191505092915050565b60006020820190508181036000830152610aa28184610a4f565b905092915050565b600073ffffffffffffffffffffffffffffffffffffffff82169050919050565b6000819050919050565b6000610aef610aea610ae584610aaa565b610aca565b610aaa565b9050919050565b6000610b0182610ad4565b9050919050565b6000610b1382610af6565b9050919050565b610b2381610b08565b82525050565b6000602082019050610b3e6000830184610b1a565b92915050565b600080fd5b6000610b5482610aaa565b9050919050565b610b6481610b49565b8114610b6f57600080fd5b50565b600081359050610b8181610b5b565b92915050565b600060208284031215610b9d57610b9c610b44565b5b6000610bab84828501610b72565b91505092915050565b6000819050919050565b610bc781610bb4565b82525050565b6000602082019050610be26000830184610bbe565b92915050565b60008115159050919050565b610bfd81610be8565b82525050565b6000602082019050610c186000830184610bf4565b92915050565b610c2781610bb4565b8114610c3257600080fd5b50565b600081359050610c4481610c1e565b92915050565b600060208284031215610c6057610c5f610b44565b5b6000610c6e84828501610c35565b91505092915050565b610c8081610b49565b82525050565b6000602082019050610c9b6000830184610c77565b92915050565b6000610cac82610af6565b9050919050565b610cbc81610ca1565b82525050565b6000602082019050610cd76000830184610cb3565b92915050565b7f4e487b7100000000000000000000000000000000000000000000000000000000600052602260045260246000fd5b60006002820490506001821680610d2457607f821691505b602082108103610d3757610d36610cdd565b5b50919050565b7f63616c6c6572206d75737420626520746865206f776e65720000000000000000600082015250565b6000610d73601883610a03565b9150610d7e82610d3d565b602082019050919050565b60006020820190508181036000830152610da281610d66565b9050919050565b7f4e487b7100000000000000000000000000000000000000000000000000000000600052603260045260246000fd5b6000604082019050610ded6000830185610c77565b610dfa6020830184610bbe565b9392505050565b610e0a81610be8565b8114610e1557600080fd5b50565b600081519050610e2781610e01565b92915050565b600060208284031215610e4357610e42610b44565b5b6000610e5184828501610e18565b91505092915050565b7f4e487b7100000000000000000000000000000000000000000000000000000000600052601160045260246000fd5b6000610e9482610bb4565b91507fffffffffffffffffffffffffffffffffffffffffffffffffffffffffffffffff8203610ec657610ec5610e5a565b5b600182019050919050565b6000606082019050610ee66000830186610c77565b610ef36020830185610c77565b610f006040830184610bbe565b949350505050565b6000610f1382610bb4565b9150610f1e83610bb4565b9250828201905080821115610f3657610f35610e5a565b5b92915050565b7f7374616b696e672062616c616e63652063616e6e6f7420626520300000000000600082015250565b6000610f72601b83610a03565b9150610f7d82610f3c565b602082019050919050565b60006020820190508181036000830152610fa181610f65565b905091905056fea2646970667358221220c36964d58e69df7fe5cf82e9bc494d88029cef61e039782a37881f8f83dae3e664736f6c63430008110033",
  "immutableReferences": {},
  "source": "//SPDX-License-Identifier: UNLICENSED\r\npragma solidity ^0.8.9;\r\n\r\nimport \"./Dapptoken.sol\";\r\nimport \"./Retoken.sol\";\r\n\r\ncontract Farm {\t\t\r\n\tstring public name = \"Dapp Token Farm\";\r\n\taddress public owner;\r\n\tDapptoken public dapptoken; //token dapp\r\n\tRedapptoken public redapptoken;\t//token ndt gui\r\n\r\n\taddress[] public stakers;\r\n\tmapping(address => uint) public stakingBalance;\r\n\tmapping(address => bool) public hasStaked;\r\n\tmapping(address => bool) public isStaking;\r\n\r\n\tconstructor(Dapptoken _dapptoken, Redapptoken _redapptoken) public {\r\n\t\tdapptoken = _dapptoken;\r\n\t\tredapptoken = _redapptoken;\r\n\t\towner = msg.sender;\r\n\t}\r\n\r\n\t/* Stakes Tokens (Deposit): An investor will deposit the DAI into the smart contracts\r\n\tto starting earning rewards.\r\n\t\t\r\n\tCore Thing: Transfer the DAI tokens from the investor's wallet to this smart contract. */\r\n\tfunction stakeTokens(uint _amount) public {\t\t\t\t\r\n\t\t// transfer Mock DAI tokens to this contract for staking\r\n\t\tredapptoken.transferFrom(msg.sender, address(this), _amount);\r\n\r\n\t\t// update staking balance\r\n\t\tstakingBalance[msg.sender] = stakingBalance[msg.sender] + _amount;\t\t\r\n\r\n\t\t// add user to stakers array *only* if they haven't staked already\r\n\t\tif(!hasStaked[msg.sender]) {\r\n\t\t\tstakers.push(msg.sender);\r\n\t\t}\r\n\r\n\t\t// update stakng status\r\n\t\tisStaking[msg.sender] = true;\r\n\t\thasStaked[msg.sender] = true;\r\n\t}\r\n\r\n\t// Unstaking Tokens (Withdraw): Withdraw money from DApp.\r\n\tfunction unstakeTokens() public {\r\n\t\t// fetch staking balance\r\n\t\tuint balance = stakingBalance[msg.sender];\r\n\r\n\t\t// require amount greter than 0\r\n\t\trequire(balance > 0, \"staking balance cannot be 0\");\r\n\r\n\t\t// transfer Mock Dai tokens to this contract for staking\r\n\t\tredapptoken.transfer(msg.sender, balance);\r\n\r\n\t\t// reset staking balance\r\n\t\tstakingBalance[msg.sender] = 0;\r\n\r\n\t\t// update staking status\r\n\t\tisStaking[msg.sender] = false;\r\n\t}\r\n\r\n\t/* Issuing Tokens: Earning interest which is issuing tokens for people who stake them.\r\n\tCore Thing: Distribute DApp tokens as interes and also allow the investor to unstake their tokens\r\n\tfrom the app so give them interest using the app. */\r\n\tfunction issueTokens() public {\r\n\t\t// only owner can call this function\r\n\t\trequire(msg.sender == owner, \"caller must be the owner\");\r\n\r\n\t\t// issue tokens to all stakers\r\n\t\tfor (uint i=0; i<stakers.length; i++) {\r\n\t\t\taddress recipient = stakers[i];\r\n\t\t\tuint balance = stakingBalance[recipient];\r\n\t\t\tif(balance > 0) {\r\n\t\t\t\tdapptoken.transfer(recipient, balance);\r\n\t\t\t}\t\t\t\r\n\t\t}\r\n\t}\r\n\r\n}",
  "sourcePath": "D:\\farm\\contracts\\farm.sol",
  "compiler": {
    "name": "solc",
    "version": "0.8.17+commit.8df45f5f.Emscripten.clang"
  },
  "schemaVersion": "3.4.13",
  "updatedAt": "2023-05-08T03:41:22.895Z",
  "networkType": "ethereum",
  "devdoc": {
    "kind": "dev",
    "methods": {},
    "version": 1
  },
  "userdoc": {
    "kind": "user",
    "methods": {},
    "version": 1
  }
}